:020000040800F2
:10000000580D0020B9020008DD1C0008B51A0008D0
:10001000D91C000875190008C72900080000000055
:10002000000000000000000000000000192200088D
:100030007919000800000000711D00082D23000838
:10004000D3020008D3020008D3020008B120000840
:10005000D3020008D3020008D3020008D30200082C
:10006000D3020008D3020008D3020008D30200081C
:10007000D3020008D3020008D3020008D30200080C
:10008000D3020008D3020008D3020008D3020008FC
:10009000D3020008D3020008D3020008D3020008EC
:1000A000D3020008D3020008D3020008D3020008DC
:1000B000D3020008D302000891230008D3020008ED
:1000C000D3020008D3020008D3020008D3020008BC
:1000D000D3020008D5250008D30200085D260008D9
:1000E000D3020008D3020008D3020008D30200089C
:1000F000D3020008D3020008D3020008D30200088C
:10010000D3020008D3020008D3020008D30200087B
:10011000D3020008D3020008D3020008C923000854
:10012000D3020008D3020008D3020008D30200085B
:1001300000F002F800F0B0F80AA090E8000C824449
:100140008344AAF10107DA4501D100F0A5F8AFF226
:10015000090EBAE80F0013F0010F18BFFB1A43F0A5
:1001600001031847A03F0000C03F00000A444FF0C1
:10017000000C10F8013B13F0070408BF10F8014B06
:100180001D1108BF10F8015B641E05D010F8016B4B
:10019000641E01F8016BF9D113F0080F1EBF10F8AF
:1001A000014BAD1C0C1B09D16D1E58BF01F801CBD2
:1001B000FAD505E014F8016B01F8016B6D1EF9D555
:1001C0009142D6D37047000000230024002500266A
:1001D000103A28BF78C1FBD8520728BF30C148BFAA
:1001E0000B6070476E2900F0CF82702900F06F819C
:1001F000662903F07186652903F06E86672903F08E
:100200006B866129AFF3008003681B0A28BF41F0A9
:100210008001692900F0E080642900F0DD80752903
:1002200000F0DA806F2900F0C783782900F03B8165
:10023000E92900F06183E42900F05E83F52900F0EC
:100240005B83EF2900F0C483F82900F03A8103684A
:10025000DB0928BF41F08001632900F0D0827329B7
:1002600000F0D582E32900F01986F32900F01E86FC
:10027000002070471FB500F06FFE04000020002131
:1002800003F014FE401C60600020002103F0F8FD24
:10029000E0601FBD10B510BD00F030FE1146FFF745
:1002A000E9FF02F085FC00F009FF03B4FFF7F2FF5D
:1002B00003BC02F0A5FB000009488047094800473D
:1002C000FEE7FEE7FEE7FEE7FEE7FEE7FEE7FEE706
:1002D000FEE7FEE704480549054A064B7047000063
:1002E000312300083101000858070020580D002074
:1002F0005809002058090020704700001CB50C4622
:10030000064B7B4469460090204600F056FA0446AE
:100310000020694600F064FA20461CBDDB040000A2
:100320000FB4044910B503AA029800F075FA10BC86
:100330005DF814FB1800002070B50446856900685C
:10034000C10601D5302600E02026C00707D070BDC9
:10035000D4E9012130469047206A401C20626D1E7E
:10036000F6D570BD70B5044685690078C00707D121
:1003700070BDD4E9012120209047206A401C2062F2
:100380006D1EF6D570BD70B50C460546012A05D028
:100390002878800600D5EA69002302E0012305E001
:1003A0005B1C934202D2E05C0028F9D1A869E618F0
:1003B000C01AA861286A184428622846FFF7BCFFC3
:1003C00004E0D5E9012114F8010B9047B442F8D3B9
:1003D0002846FFF7C7FF70BD2DE9F041064600240F
:1003E00010687529314616A510D000F062F9002872
:1003F00002DA404213A507E031688A0701D512A549
:1004000002E0490704D511A5012401E000F05AF9E2
:1004100000210A2206F1240709E0B0FBF2FCB0FB40
:10042000F2F302FB1C00303078541846491C0028B7
:10043000F3D123462A463046BDE8F04100F04BB9DF
:10044000000000002D0000002B0000002000000034
:10045000F0B40D460188090502D5214C7C4402E028
:100460001F4C7C440E34002100F1240608E002F009
:100470000F071209E75D42EA03721B097754491C12
:1004800052EA0307F3D102780023120704D5702D36
:1004900006D009B1022311342246F0BC00F01BB98A
:1004A00001231034F8E770B504460D462146106864
:1004B00000F008F9024629462046BDE870400023B6
:1004C000C6E7D21D22F00703D3E90023C0E7036883
:1004D000126843F0200303600823C3610023B7E7D9
:1004E000FC3A00002DE9F05F894604464FF0000A0F
:1004F000DFF874B1FB44C0F820A02046E1688847CB
:10050000002874D0252806D0D4E901219047206A1C
:10051000401C2062F1E700265F462046E1688847DC
:100520002028054607DB312D05D2781910F8200C5C
:1005300008B10643F1E7B00701D526F00406C4F878
:100540001CA00027C4F818A02A2D09D0284602F0C4
:1005500050FA38B304EB8708303DC8F8185019E05A
:1005600059F8041B204604EB87029161E168884733
:10057000012F054618D1E069002820DA26F0200670
:100580001DE0D8F8180000EB800005EB4000303883
:10059000C8F818002046E1688847054602F029FAA5
:1005A0000028EED1012F0AD02E2D08D12046E16877
:1005B00088477F1C0546022F46F02006C4DBA06951
:1005C000002803DA404246F00106A061F00701D09E
:1005D00026F010066C2D0BD0682D09D04C2D39D08B
:1005E0006A2D35D0742D35D07A2D33D016E038E011
:1005F000E1682F4620468847B842054609D16C2F4E
:1006000026D04FF48060E1680643204688470546BF
:1006100004E06C2F1AD04FF4807006430DB3A5F19F
:100620004100192802D8203546F400664A4629467A
:10063000204626604E46FFF7D5FD80B101280BD03D
:10064000F61D26F0070000F1080956E74020E4E710
:100650008020D8E70020D6E706F104094DE72846B8
:1006600052E7206ABDE8F09F8C3A000010B5431CA9
:1006700002E010F8011B71B18107FAD14FF001328D
:1006800002C88C1A8C4314EAC211F9D0C01A0A06A7
:1006900003D0C01E10BDC01A10BD0A0401D0801EB8
:1006A00010BD0902FCD0401E10BD70477047704756
:1006B000704709684A0501D540B27047C905FCD5A5
:1006C00000B2704709684A0501D5C0B27047C90534
:1006D000FCD580B270472DE9F0470D469946924609
:1006E000044600F124080168880604D5E06921F079
:1006F0001001216000E00120A84201DD471B00E05D
:100700000027A1697A1902EB0900081AA061207874
:10071000C00602D42046FFF70FFE002608E0D4E909
:1007200001211AF806009047206A401C761C2062BE
:100730004E45F4DB2078C0060AD52046FFF7FCFDC5
:1007400006E0D4E9012130209047206A401C206255
:10075000381EA7F10107F4DC07E0D4E9012118F8FD
:1007600005009047206A401C2062281EA5F1010563
:10077000F3DC2046FFF7F6FD2078000602D50220C4
:10078000BDE8F0870120FBE711680268006A5305A5
:1007900001D508700AE0D30501D5088006E01306EC
:1007A00003D5C217C1E9000200E0086001207047CC
:1007B00001694A1C02610878704700B58FB0CDE925
:1007C00001310021059105497944CDE90310114615
:1007D0006846FFF787FE0FB000BD0000E5FFFFFF92
:1007E0000A6802F8010B0A60704710B5436913B13B
:1007F000AFF3008001E0FFF7C6FD012010BD1278C5
:1008000000F124010A7000224A700122EDE711680C
:100810004FF0FF32E9E70000074B70B50D467B440F
:10082000FFF7CBFF0446284600F044FB10B14FF021
:10083000FF3070BD204670BD732300002DE9FF5FBF
:1008400015468A460446DFF8AC80F8440027D8E90C
:1008500000103E46CDE9001010E03AF816106A4646
:1008600002A800F02BFB411C07D02178890603D594
:10087000E269391891420DD80744761C2078800629
:1008800002D5E069B84205DDAE42E6DB3AF8160073
:100890000028E2D1A069C01BA0612046FFF74CFDF3
:1008A000D8E90010CDE90010002017E03AF8181040
:1008B0006A4602A800F002FBB0F1FF3F81460BD070
:1008C00000250DF1080B05E0D4E901211BF8050016
:1008D00090476D1C4D45F7D308F10100B0428046AA
:1008E000E4DB206A384420622046FFF73BFDBDE888
:1008F000FF9F00004A3700002DE9F0418046D21DDD
:1009000022F007020025D2E90002F52915A614D02D
:10091000011E72F1000106DA0023D0EB030063EB45
:10092000020211A608E0D8F800108B0701D50FA627
:1009300002E0490701D50EA601251146002408F161
:10094000240704E000F04EF830323A55641C50EAB7
:100950000102F7D12B46324621464046BDE8F04120
:10096000FFF7B9BE000000002D0000002B000000C2
:100970002000000030B4002100F1240408E002F05F
:100980000705D208303542EA4372DB086554491C3A
:1009900052EA0305F3D10468002310A2250708D505
:1009A00004F020040C4304D0C46901230CA2641E8B
:1009B000C46130BCFFF78FBE10B5044621461068F5
:1009C000FFF780FE02462046BDE810400023D1E735
:1009D000D21D22F00701D1E90023CBE7000000007F
:1009E0003000000030B5B0F10A024FEA900E71F10C
:1009F00000034EEA817EB0EB0E0061EB91014FEAFD
:100A0000101E4EEA017E10EB0E0041EB11114FEA71
:100A1000102E4EEA016E10EB0E0041EB11214FEA51
:100A2000104E4EEA014E10EB0E0041EB1141401802
:100A300041F100014FEAD00040EA41704FEAD10194
:100A400010EB80054FEA810444EA907444EB010402
:100A50006D1944EB0404521BA3414FF0000348BF3F
:100A60000A3200D530BD401C41F1000130BD704755
:100A70002DE9FF4F0C461E464FF0FF378BB0D2E9F1
:100A80000001DDF860800A908A46C1F30A5505B975
:100A90003D46002108464FF00000BAF1000F00F477
:100AA000400005DA00EB80004FF4400101EA5000FD
:100AB0004FEA9059B9F1010F00DDB9460A9850EAA2
:100AC0004A000ED044F61050A5F2FF3545432F14CE
:100AD000B8F1000F1ED07542291E1EDDC9F10002BB
:100AE0001CE0B8F1010F4FF0000001D0302103E00D
:100AF000F24305E02154401CB042FBDB30460022AB
:100B0000002121540B99C1F80880C1E900200FB0E1
:100B1000BDE8F08FBD1B6D1CDEE74A4600DA694276
:100B200006A800F05DFA06AB93E8070003AB83E884
:100B3000070050460A9900F00BFB8DE80700A0F56E
:100B400000501F3800900398002D09DD42F21F016C
:100B50004A46084403A90390684600F06AFD08E08D
:100B6000A0F500504A461F3803A90390684600F0DC
:100B700074FD8DE807000004000C03D04FF0FF3037
:100B8000410800E01046B8F1000F03D000220092A7
:100B900015461EE0751E05D4FFF724FF303262555E
:100BA0006D1EF9D5B3460122084302D000227F1CF6
:100BB00004E02078302801D100227F1E002A099706
:100BC00086D01DE0112D07DAFFF70CFF3032625599
:100BD0006D1C50EA0102F5D1084302D00098C8B15B
:100BE0000EE00021681E05E0235C625C6354225421
:100BF000401E491C8142F7DBAB46A81B401E0990F2
:100C0000002004F80B000B98099AC0F80880C0E98E
:100C1000002B7CE711264FF0000859E72DE9F04F33
:100C200088460446D21D22F0070191B0D1E90001A7
:100C3000CDE90A0101F0C9FE02460B98C00F01D0B0
:100C40002D2007E02068810701D52B2002E020211C
:100C500001EAC000032A099001D0072A05DB0346F8
:100C60004146204600F07CF90BE12078800601D552
:100C7000E06900E00620B8F1650F814606D0B8F1C2
:100C8000660F18D0B8F1670F70D131E00020B9F1CC
:100C9000110F009001DB112301E009F101030AAA01
:100CA00001A90CA8FFF7E4FEDDE90C70002609F1AC
:100CB0000105834647E001204B4600904FF0004776
:100CC0000AAA01A90CA8FFF7D3FEDDE90DB00C9923
:100CD0005D46002610B909F101000D18B9EB0500B9
:100CE00003D4C0F1FF3609F10105A5EB09002BE0A3
:100CF000B9F1010F01DA4FF001090020B9F1110F2C
:100D00000090484601DD112300E003460AAA01A92C
:100D10000CA8FFF7ADFEDDE90C704D4600268346BA
:100D2000207800070AD4AB4500DA5D4601A8012D02
:100D300004DD411911F8011C302907D04F4502DAB2
:100D400017F1040F04DA012082460FE06D1EEEE772
:100D5000002F02DCED1B3E4403E0781CA84200DDBE
:100D60007D1CB81B00F1010A4FF0004720780007F6
:100D700003D4AA4501DB4FF0FF3A0021B7F1004F41
:100D80000DF143088DF8431024D002202B23002FAF
:100D900001DA7F422D230A21021EA0F1010000DCAE
:100DA0005FB197FBF1FC97FBF1F201FB1C7C17464E
:100DB0000CF1300C08F801CDEEE7A8F1010003704A
:100DC0002188090501D5452100E06521A0F1010830
:100DD00000F8011C09980FA9A1EB0807FF1D00B13D
:100DE0000120411901EBEA70A1693844081A401E3C
:100DF000A0612078C00602D42046FFF79DFA09982A
:100E000028B1D4E901219047206A401C2062207853
:100E1000C00622D52046FFF78FFA1EE0002E04DB25
:100E2000B34502DD01A8805D00E03020D4E9012156
:100E30009047206A401C2062761CAAF101005FEAFC
:100E4000000A0AD100F088F8C0680168405CD4E963
:100E500001219047206A401C2062281EA5F101054F
:100E6000DCDC07E0D4E9012118F8010B9047206A87
:100E7000401C2062381EA7F10107F3DC2046FFF773
:100E800071FA032011B043E610B5436913B1AFF313
:100E9000008001E0FFF7D2FC012010BD128800F1B4
:100EA000240182840022C2840122EDE711684FF000
:100EB000FF32E9E7007B00F08000704770B516460E
:100EC0000C46054600F040F8036893F8010101283C
:100ED00006D0FF2C0FD8185D68B101202C7070BDB2
:100EE000D3F807013246214603F20713034428468C
:100EF000BDE8704018474FF0FF3070BD754600F0F8
:100F0000E3F8AE4605006946534620F007008546E3
:100F100018B020B5FFF7DEF9BDE820404FF000061D
:100F20004FF000074FF000084FF0000B21F00701D1
:100F3000AC46ACE8C009ACE8C009ACE8C009ACE814
:100F4000C0098D467047000010B500F005F8001D7F
:100F500010BD00BF592F0000004870471407002043
:100F60002DE9F0411F46044603260168072A01F4D3
:100F7000006004DB08B116A505E016A503E008B182
:100F800015A500E015A521F010002060A069C01E85
:100F9000A0610FB1401EA0612046FFF7CDF94FB10F
:100FA000D4E9012138469047206A401C2062C01CC9
:100FB000206206E0206AFAE7D4E9012115F8010B66
:100FC0009047761EF8D22046FFF7CCF9BDE8F081B5
:100FD0004E414E006E616E00494E4600696E6600DD
:100FE0002DE9F047814616468AB0334878440DC84B
:100FF0008DE80D0030487844801C03AC0DC884E8AF
:101000000D0041F69B300844372190FBF1F290FB34
:10101000F1F5A5F1800501FB12041B3C02D56442E9
:10102000012000E00020DFF890A080460027FA446D
:10103000AAF1BE0A0DE0E00709D03246684607EB88
:1010400047010AEB810100F008FB8DE807006410FE
:101050007F1C002CEFD1184F7F44AC3F18E0E8070D
:1010600014D007EB04100DF1180A90E80E008AE87E
:101070000E00C068F04201D198190890324606A9C6
:1010800003A800F0EAFA03AB83E807006D10641CC4
:10109000002DE4D132466946B8F1000F03A802D012
:1010A00000F0C7FA01E000F0D8FAC9E90001C9F878
:1010B00008200AB0BDE8F0872C3000000446AFF3EA
:1010C00000802046FFF7F1F800487047F406002042
:1010D0004FF0013C50F8042B51F8043B9A4221D1C7
:1010E000A2EB0C03934313EACC1317D150F8042B53
:1010F00051F8043B9A4215D1A2EB0C03934313EA37
:10110000CC130BD150F8042B51F8043B9A4209D16F
:10111000A2EB0C03934313EACC13DBD04FF0000097
:10112000704700BFD01A01BAB1FA81F101F018017D
:1011300022FA01F0CB40C1F12001DBB2C0B2C01AEB
:101140002CFA01F3D11A914311EAC311E6D1704789
:101150005FEA400C08BF91F0000F4FEA8C234FEA82
:10116000C12243EA51514FEA1C5018BF00F5F0402C
:101170004FEA300018BF41F000415FEA6C5C00F0BC
:101180002980BCF1FF3F08BF40F080407047130C3E
:1011900006BF12044FF0100C4FF0000C130E04BFEA
:1011A00012020CF1080C130F04BF12010CF1040C15
:1011B000930F04BF92000CF1020CD30F04BF520036
:1011C0000CF1010C11464FF00002A0F11F00A0EB42
:1011D0000C00704711F0004F08BF704731F000411C
:1011E0003FF4D5AF0B0C06BF09044FF0100C4FF0C5
:1011F000000C0B0E04BF09020CF1080C0B0F04BF0E
:1012000009010CF1040C8B0F04BF89000CF1020CD6
:10121000CB0F04BF49000CF1010CCCF12003A0EB73
:101220000C0022FA03F302FA0CF241EA030100F186
:101230000100704720F07F4C80EA030023F07F47D5
:10124000ACEB070303F57C5300F0004003F1FF0310
:101250002DE980494FEA154B09B44FEA144325EABA
:101260000B4E24EA03480FF2042606EB1327490825
:101270003E785FEA320203FB0667C7F5000707FB0B
:1012800006F64FEA54374FEAD64606F1020607FB48
:10129000066CCCF1005C4FEA1C472CEA074C07FBBC
:1012A00006F40CFB06F504EB15464FEA961634BF20
:1012B00000204FF000404FEAD13706FB07FC4FEA11
:1012C0001C4C0CFB0BF7D21B03FB0CF761EB07016B
:1012D0000CFB0EF7B0EB074072EB17420CFB08F764
:1012E00034BFA2EB0742B2EB074261EB17414FEA72
:1012F0000C444FEA910706FB07FC4FEA1C4C0CFB21
:101300000BF7B0EBC74072EB573203FB0CF734BF5F
:10131000A2EBC742B2EBC74261EB57310CFB0EF7B1
:10132000B0EBC70072EB57720CFB08F734BFA2EBAF
:10133000C702B2EBC70261EB5771039F4FEA8161AD
:1013400041EA921104EBCC044FEAD1374FEA8262B2
:1013500006FB07FC42EA90124FEA80604FEA1C4C01
:101360000CFB0BF7D21B03FB0CF761EB07010CFB2B
:101370000EF7B0EB074072EB17420CFB08F734BFD7
:10138000A2EB0742B2EB074261EB17414FEA8C55E3
:101390004FEA910704EB9C2406FB07FC4FEA1C4C28
:1013A0000CFB0BF7B0EBC74072EB573203FB0CF7AB
:1013B00034BFA2EBC742B2EBC74261EB57310CFB23
:1013C0000EF7B0EBC70072EB57720CFB08F734BF97
:1013D000A2EBC702B2EBC70261EB577115EB4C25CC
:1013E0004FEA816141EA92114FEA82624FEAD137B6
:1013F00042EA901206FB07FC44F100044FEA8060C9
:101400004FEA1C4C0CFB0BF7D21B03FB0CF761EBF8
:1014100007010CFB0EF7B0EB074072EB17420CFB19
:1014200008F734BFA2EB0742B2EB074261EB17416A
:1014300015EB1C154FEA813141EA92414FEA8232A5
:1014400042EA90424FEA80304FEA0C7644F10004C1
:1014500048EA03434EEA0B484FF0000EB2EB080C8B
:1014600071EB030724BF624639464EEB0E0E4FF078
:10147000000B0018524149414BEB0B0BB2EB080C2F
:1014800071EB03077BF1000B24BF624639464EEB3C
:101490000E0E4FF0000B0018524149414BEB0B0B65
:1014A000B2EB080C71EB03077BF1000B24BF624623
:1014B00039464EEB0E0E51EA020718BF46F0010600
:1014C00016EB0E7655F1000254F1000103D5BDE88C
:1014D0008901BDE80088BDE88901BDE80048B6196A
:1014E000524141EB0101A3F10103704780807F7EEF
:1014F0007D7C7B7A7978777676757473727171708A
:101500006F6E6E6D6C6C6B6A6A696868676666653B
:101510006464636362616160605F5F5E5E5D5D5CC9
:101520005C5B5B5A5A59595858575756565555553A
:101530005454535352525251515050504F4F4F4E9A
:101540004E4D4D4D4C4C4C4B4B4B4A4A4A494949E8
:10155000484848474747474646464545454444442A
:10156000444343434342424242414141002B26D43B
:10157000770021D01CB54FEA370703B44FF01000B5
:101580004FF010014FF000000FBCBDE810400BF110
:10159000010BBBF1010F08BF5FEA170722BF12F171
:1015A000010211F101014FF0004143F1000300F08D
:1015B000004043EA00007047F9D35708DAE746EAEB
:1015C000064613F1400F4FEA16461FDD13F1200FB8
:1015D000DFBF16430A46002120335B42C8D0C3F167
:1015E000200746EA064602FA07F74FEA164646EA99
:1015F0000706C3F1200722FA03F201FA07F721FADE
:1016000003F14FF0000342EA0702B1E746EA02069F
:1016100046EA06464FEA164646EA0106BCBF46EAD7
:101620000646360C4FF000034FF000024FF0000169
:101630009EE72DE9C048934630B491E8380007C8CA
:1016400031EA400C48BF34EA430C03D5FFF7F2FD02
:10165000FFF78CFFF0BCBDE800882DE9C048934639
:1016600030B491E8380007C810F0804F08BF13F07D
:10167000804F03D100F005F8FFF778FFF0BCBDE81C
:10168000008820F07F4780EA030023F07F4C07EBBF
:101690000C03A3F57C5300F00040A3F1FE0392F08D
:1016A000000F00F0B38095F0000F00F077802DE977
:1016B00001494FEA11404FEA144621EA004800FB75
:1016C00006FC24EA064708FB06F607FB08F800FBC1
:1016D00007F718EB06484CEB164C4FEA124B18EB89
:1016E00007484FEA15464CEB174022EA0B4E0BFB1E
:1016F00006FC25EA06470EFB06F607FB0EFE0BFB73
:1017000007F71EEB064E4CEB164C4FF000061EEB97
:10171000074E4CEB174B18EB0B0840F1000018EB91
:101720000E0B58EB000840F100008F1A4FF000013B
:101730003CBFC943661B14BFB5EB040C00213CBF82
:10174000C943F61B4FEA17444EEA8E0E27EA0445BA
:101750004FEA1C4704FB07622CEA074C05FB07F71E
:101760000CFB05F604FB0CFC16EB074642EB17429C
:1017700016EB0C4642EB1C421BEB060658EB020232
:10178000414146EA9E0601D5BDE80189B61952419C
:1017900041EB0101A3F10103BDE801894FEA1445C2
:1017A0004FEA114724EA054621EA074C05FB07F4F6
:1017B00006FB07F70CFB06F105FB0CFC11EB0741E0
:1017C00044EB17444FEA124711EB0C4144EB1C4425
:1017D00022EA074C05FB07F206FB07F70CFB06F6AF
:1017E00005FB0CFC16EB074642EB174216EB0C46CA
:1017F00042EB1C456A1854F1000148BF7047B61906
:10180000524141EB0101A3F10103704795F0000F34
:1018100037D04FEA11424FEA144721EA024624EA40
:10182000074C02FB07F106FB07F70CFB06F402FB73
:101830000CFC14EB074441EB17414FEA154714EB3E
:101840000C4441EB1C4125EA074C02FB07F506FB63
:1018500007F70CFB06F602FB0CFC16EB074645EB04
:10186000174516EB0C4645EB1C42121951F10001CD
:1018700048BF7047B619524141EB0101A3F1010382
:1018800070474FEA14454FEA114724EA054621EA1A
:10189000074C05FB07F106FB07F70CFB06F24FF0C0
:1018A000000605FB0CFC12EB074241EB174112EB63
:1018B0000C4251EB1C4148BF7047921841EB0101AB
:1018C000A3F101037047000008B50121082000F0D2
:1018D00071FA4FF48070ADF8000010208DF803000D
:1018E00003208DF802006946044800F046F8002203
:1018F0004FF48071014800F0D8F808BD000C014099
:1019000010B5002414E0012211020B4800F0CDF8BC
:101910004FF4FA7001F018F900224FF48071064874
:1019200000F0C3F84FF4FA7001F00EF9601C84B2B5
:10193000C82CE8DB10BD0000000C014010B50024ED
:1019400012E0012211020A4800F0AFF8C82001F0AD
:10195000FBF800224FF48071054800F0A6F8C8207B
:1019600001F0F2F8601C84B2C82CEADB10BD000064
:10197000000C014000BFFEE770472DE9F041024630
:1019800000250026002000230024002791F803C032
:101990000CF00F0591F803C00CF0100CBCF1000F17
:1019A00003D091F802C04CEA050591F800C0BCF1E3
:1019B000000F31D0146800202BE04FF0010C0CFA1E
:1019C00000F3B1F800C00CEA03069E4220D1830068
:1019D0004FF00F0C0CFA03F7BC4305FA03FC4CEA7A
:1019E000040491F803C0BCF1280F06D14FF0010C9C
:1019F0000CFA00FCC2F814C00AE091F803C0BCF174
:101A0000480F05D14FF0010C0CFA00FCC2F810C0D1
:101A1000401C0828D1D31460B1F800C0BCF1FF0FFE
:101A200034DD546800202EE000F1080C4FF001086E
:101A300008FA0CF3B1F800C00CEA03069E4221D16B
:101A400083004FF00F0C0CFA03F7BC4305FA03FCBC
:101A50004CEA040491F803C0BCF1280F05D100F151
:101A6000080C08FA0CF8C2F8148091F803C0BCF115
:101A7000480F07D100F1080C4FF0010808FA0CF8E4
:101A8000C2F81080401C0828CED35460BDE8F08115
:101A90000246002093680B400BB1012000E00020BB
:101AA000704741617047016170470AB1016100E010
:101AB0004161704700BFFEE70146CA1701EB927211
:101AC0009210A1EB820292B9642091FBF0F200FB2C
:101AD000121050B94FF4C87091FBF0F200FB1210D5
:101AE00008B9012070470020FCE70120FAE7002038
:101AF000F8E7000008B50121482000F05BF920203C
:101B0000ADF8000010208DF8030003208DF80200CE
:101B100069460948FFF731FF20210748FFF7C3FF57
:101B20002020ADF8000069460448FFF726FF202179
:101B30000248FFF7B8FF08BD000C01400018014043
:101B400070B5002435E0002520E0012211021A487A
:101B5000FFF7ABFF6000194931F81000184991FBFD
:101B6000F0F6304600F0F0FF00224FF4807112488A
:101B7000FFF79BFF6000114931F81000104991FBFD
:101B8000F0F6304600F0E0FF681C85B260000B49BB
:101B900031F81000012101EB4401084A32F811101C
:101BA00048434FF47A7190FBF1F0A842CDDC601C01
:101BB00084B21A2CC7DB70BD000C0140DC3E00086B
:101BC00020A1070010B501210748FFF76CFF042191
:101BD0000548FFF766FF10210348FFF764FF402127
:101BE0000148FFF75EFF10BD001C014010B5052144
:101BF0000348FFF756FF50210148FFF752FF10BD81
:101C0000001C014010B501210748FFF74AFF0421DD
:101C10000548FFF748FF10210348FFF744FF402124
:101C20000148FFF73EFF10BD001C014010B5012127
:101C30000748FFF738FF04210548FFF732FF10215E
:101C40000348FFF72EFF40210148FFF72CFF10BD8E
:101C5000001C014010B501210748FFF722FF0421B5
:101C60000548FFF720FF10210348FFF71AFF402126
:101C70000148FFF718FF10BD001C014008B5012105
:101C8000802000F097F803208DF8020010208DF8D6
:101C900003000520ADF8000069460E48FFF76DFE11
:101CA0005020ADF8000069460A48FFF766FE4FF481
:101CB0000050ADF8000069460648FFF75EFE4FF49D
:101CC0000040ADF8000069460248FFF756FEFFF7F6
:101CD0008DFF08BD001C014000BFFEE770470000FB
:101CE00070B5002100230F22C47804B3154C24687A
:101CF00004F4E064C4F5E064210AC1F10403CA40BD
:101D0000447804FA03F184781440214309010E4C0D
:101D10000678A155047804F01F050124AC4005782D
:101D20006D11AD0005F1E025C5F8004109E004782A
:101D300004F01F050124AC40044D0678761145F8E7
:101D4000264070BD0CED00E000E400E080E100E022
:101D500002490143024A1160704700000000FA0581
:101D60000CED00E0014908627047000000000E42DF
:101D70007047000029B1064AD2690243044BDA6178
:101D800004E0034AD2698243014BDA6170470000E4
:101D90000010024029B1064A12690243044B1A613D
:101DA00004E0034A12698243014B1A617047000044
:101DB0000010024029B1064A92690243044B9A611D
:101DC00004E0034A92698243014B9A617047000024
:101DD0000010024029B1064AD2680243044BDA607F
:101DE00004E0034AD2688243014BDA607047000086
:101DF0000010024030B500210022002400232D4DA8
:101E00006D6805F00C0121B1042905D0082923D102
:101E100005E0294D056022E0274D05601FE0254DB6
:101E20006D6805F47012234D6D6805F48034022549
:101E300005EB92421CB9214D554305600BE01D4D49
:101E40006D6805F400351DB11C4D5543056002E079
:101E5000194D5543056002E0174D056000BF00BFF6
:101E6000144D6D6805F0F0010909154D6B5C0568AE
:101E7000DD4045600F4D6D6805F4E061090A104DC5
:101E80006B5C4568DD4085600A4D6D6805F4605106
:101E9000C90A0B4D6B5C4568DD40C560054D6D683A
:101EA00005F44041890B074D6B5CC568B5FBF3F544
:101EB000056130BD0010024000127A0000093D00AB
:101EC0002200002032000020024909888143014A93
:101ED00011807047042800400348008840F010003B
:101EE000014908807047000004280040034800882A
:101EF0004FF6EF7108400149088070470428004000
:101F000070B500260024002500F07AF8064638480F
:101F1000B6FBF0F437480088A0423CD035490C802D
:101F200040F2B27510E02846FFF7C6FD40B1B4F5A7
:101F3000B77F02D3A4F5B77404E0681C85B206E04D
:101F4000A4F26D14681C85B2B4F5B67FEBD800BF5F
:101F500029488580002516E027498888FFF7ACFDD1
:101F600030B1012D04D11D2C01D31D3C09E00CE042
:101F70002248405DA04203D82048405D241A00E07A
:101F800003E0681C85B21C2CE6D200BF681C1A490D
:101F90008871601CC8711648B6FBF0F100FB116433
:101FA0004FF46160B4FBF0F0134908704FF46160C6
:101FB000B4FBF0F100FB11403C21B0FBF1F00E4905
:101FC00048704FF46160B4FBF0F100FB11403C211C
:101FD000B0FBF1F201FB1200074988700B46DA7979
:101FE0009979988800F028F803490872002070BD9C
:101FF000805101001E00002038020020503F0008E0
:10200000002103480188001F008841EA0040704712
:102010001C28004001460020064A12880A40D0B21F
:10202000044A121F12880A4012B108B1012000E0D0
:102030000020704704280040F0B503460C461546C2
:10204000642093FBF0F0C6B2642093FBF0F700FB32
:102050001730C1B2132E02DD01F16400C1B208468F
:10206000CF1701EB977701EBA707BAB2072092FBD6
:10207000F0F700FB172082B25719601EDFF82CC062
:102080001CF80000384482B2CF1701EB9777BF10DD
:10209000A1EB87071FB9032C01DA501E82B207207B
:1020A00092FBF0F700FB1720C0B2F0BD443F0008E0
:1020B0000EB50120FFF7AEFF08B1FFF721FF0220A8
:1020C000FFF7A8FFA0B10220FFF7FEFEFFF718FF01
:1020D0000A48807809494978084A1278CDE90021F0
:1020E00002900648C3798279818805A0FEF718F925
:1020F0000520FFF7E9FE00F085F80EBD380200204C
:10210000416C61726D2054696D653A25642D2564BA
:102110002D25642025643A25643A25640A000000D0
:102120002DE9F05F06460F4690469946DDE90AAB79
:10213000002440F2B270864203DB40F63300864250
:1021400002DD0120BDE8F09F40F2B2750AE02846AA
:10215000FFF7B2FC10B12048044401E01F480444DA
:10216000681C85B2B542F2DB781EC7B2002510E0CC
:102170001B48405D40F2A321484304EBC0143046A5
:10218000FFF79AFC18B1012D01D116480444681CD0
:1021900085B2BD42ECDBA8F1010040F2A321484327
:1021A00004EBC014C9EB4910C0EB092004EB001488
:1021B000CAEB0A1004EB80045C4401214FF0C050CC
:1021C000FFF7D8FD0120FFF7CDFD204600F00CF809
:1021D00000F018F80020B5E70085E2018033E10146
:1021E000503F00088051010000B50246FFF774FE21
:1021F000100C03490880091D0A80FFF777FE00BD17
:102200001828004000BF0348008800F02000002884
:10221000F9D0704704280040704710B500F002F86C
:1022200010BD00000CB500200190009033480068FC
:1022300040F480303149086000BF3048006800F445
:10224000003000900198401C0190009818B9019846
:10225000B0F5A06FF1D12948006800F4003010B14A
:102260000120009001E0002000900098012843D157
:102270002348006840F010002149086008460068C3
:1022800020F0030008600846006840F00200086083
:102290001A4840681949486008464068486008463E
:1022A000406840F4806048600846406820F47C1034
:1022B00048600846406840F4E810486008460068F6
:1022C00040F08070086000BF0C48006800F00070AB
:1022D0000028F9D00948406820F003000749486009
:1022E0000846406840F00200486000BF034840686C
:1022F00000F00C000828F9D10CBD000000100240CD
:1023000000200240042808D14FF0E021096941F083
:1023100004014FF0E022116107E04FF0E02109696C
:1023200021F004014FF0E022116170477047000076
:1023300010B51348006840F00100114908600846D4
:102340004068104908400E494860084600680E4938
:1023500008400B4908600846006820F480200860A7
:102360000846406820F4FE0048604FF41F00886073
:10237000FFF753FF4FF000600449086010BD0000F4
:10238000001002400000FFF8FFFFF6FE08ED00E03D
:1023900010B501210A4800F07FF801280AD1094947
:1023A000086980470021064800F092F8642104483B
:1023B00000F08CF80121024800F053F810BD000035
:1023C000000800407C00002010B50121094800F001
:1023D00063F868B10848008840F400400649088066
:1023E0000121044800F03DF80021024800F03CF8CB
:1023F00010BD000000140040200000207FB50546FD
:102400000C4601212020FFF7B5FCADF80450ADF8D3
:1024100000400020ADF80600ADF8020069460E4805
:1024200000F058F8012211460B4800F046F801214F
:10243000094800F019F837208DF80C0000208DF8BD
:102440000D0002208DF80E0001208DF80F0003A86A
:10245000FFF746FC7FBD000000140040CA43028223
:102460007047CA430282704721B1028842F00102DC
:10247000028004E002884FF6FE731A400280704723
:102480000146888C704702460020138A0B400BB12E
:10249000012000E00020704730B5024600200023F4
:1024A0000024158A05EA0103958905EA010413B1A0
:1024B0000CB1012000E0002030BD1AB183890B432C
:1024C000838102E083898B438381704781857047D4
:1024D00081847047002202881D4B98420ED01D4B0C
:1024E00098420BD0B0F1804F08D01B4B984205D0DA
:1024F0001A4B984202D01A4B984204D14FF68F7370
:102500001A404B881A43174B984207D0164B9842F3
:1025100004D04FF6FF431A40CB881A4302808B88C1
:1025200083850B8803850A4B98420BD0094B984250
:1025300008D00E4B984205D00D4B984202D00D4B5F
:10254000984201D10B7A03860123838270470000F1
:10255000002C01400034014000040040000800400D
:10256000000C0040001000400014004000400140FA
:1025700000440140004801407FB505460C4601215A
:102580000420FFF7F7FBADF80850ADF80440002039
:10259000ADF80A00ADF8060001A90D48FFF79AFF53
:1025A000012241210A48FFF788FF1E208DF8000014
:1025B00003208DF801008DF8020001208DF8030042
:1025C0006846FFF78DFB01210148FFF74DFF7FBDF6
:1025D0000008004010B540F225511D4800F02FF9C9
:1025E00010B31B4800F0E6F9C4B21A48008800F4A2
:1025F0000040C8B91748008800F4804060B10A2C38
:1026000003D000201349088020E01248008840F4DD
:1026100000401049088019E00D2C06D10D480088B3
:1026200040F480400B49088010E00A480088C0F35D
:102630000D0009490C5407480088401C05490880D2
:1026400008460088C72801DD0020088010BD000072
:10265000003801401C0000207001002010B500244B
:1026600040F22551294800F0EAF8002848D02748D0
:1026700000F0A0F9C4B2A4F1300009283FD2DFE88D
:1026800000F0232C173B11050B351D00FFF7AEFAA8
:102690001FA000F0E9FA32E0FFF7C8FA1EA000F030
:1026A000E3FA2CE0FFF7AEFA1DA000F0DDFA26E019
:1026B000FFF7D0FA1CA000F0D7FA20E0FFF782FA6B
:1026C0001BA000F0D1FA1AE001201B490860FFF7B7
:1026D00017F91AA000F0C8FA11E0002016490860A6
:1026E000FFF72CF917A000F0BFFA08E000F08AF914
:1026F00016A000F0B9FA02E0FFF722FA00BF00BF0F
:102700002021024800F02AF810BD000000480040D7
:1027100053544F50000000004C4546540000000048
:102720005249474854000000464F52574152440016
:102730004241434B00000000940123424C45442099
:102740004F4E00004C4544204F46460053414645FD
:102750004D4F44455F436C6F7365000001F4007298
:10276000B2F5007F00D100BFCA430280704721B19B
:10277000828942F40052828104E082894DF6FF731F
:102780001A4082817047000010B5044620488442F8
:1027900009D101218803FFF71DFB00214FF4804080
:1027A000FFF718FB32E01B48844209D1012148049D
:1027B000FFF7F0FA00214FF40030FFF7EBFA25E0C5
:1027C0001548844209D101218804FFF7E3FA00216A
:1027D0004FF48020FFF7DEFA18E01048844209D158
:1027E0000121C804FFF7D6FA00214FF40020FFF7BB
:1027F000D1FA0BE00A48844208D101210805FFF70D
:10280000C9FA00214FF48010FFF7C4FA10BD000090
:10281000003801400044004000480040004C0040A7
:102820000050004002460020B1F5007F00D100BFFB
:1028300013880B400BB1012000E00020704770B5F9
:102840000246002400230025002040F66A16B1420B
:1028500000D100BFC1F3421501F01F03012606FAA3
:1028600003F3012D02D19689334006E0022D02D1F7
:10287000168A334001E0968A33400C12012606FA8C
:1028800004F41688344013B10CB1012000E000209C
:1028900070BDF0B50346002400260025002040F658
:1028A0006A17B94200D100BF1846C1F3421401F0C3
:1028B0001F06012707FA06F5012C01D10C3004E0B0
:1028C000022C01D1103000E014301AB107682F43F8
:1028D000076002E00768AF430760F0BD2DE9F047ED
:1028E00086B005460E460024A24600BFA14600273A
:1028F000B08900B100BF2F462C8A4CF6FF7004400F
:10290000F08804432C82AC894EF6F3100440B08862
:1029100031890843718908430443AC81AC8A4FF67E
:10292000FF400440B0890443AC8201A8FFF762FA7B
:102930001F48874202D1DDF810A001E0DDF80CA0AD
:10294000A88900F4004040B10AEBCA0000EB0A106D
:1029500031684900B0FBF1F807E00AEBCA0000EB70
:102960000A1031688900B0FBF1F86420B8FBF0F080
:1029700004012009642101FB1089A88900F40040AA
:1029800040B1322000EBC900B0FBF1F000F00700CD
:10299000044308E0322000EB09106421B0FBF1F0A1
:1029A00000F00F0004432C8106B0BDE8F087000062
:1029B0000038014001468888C0F308007047C1F321
:1029C00008028280704700BFFEE7490050EAC1203C
:1029D00018BF04204A0D18BF40F0010040F2FF72FA
:1029E000B2EB515F08BF40F00200012808BF05208C
:1029F000704730380A2801D2012070470020704704
:102A000000BF704710B534E002211C48FFF740F8C2
:102A1000012807D108211948FFF73AF8012801D108
:102A2000FFF718F902211548FFF732F801280ED1F7
:102A300008211248FFF72CF848B9FFF7C3F8C8205F
:102A400000F05CF8FFF7F2F8C82000F057F8022118
:102A50000A48FFF71DF830B908210848FFF718F8B1
:102A600008B9FFF7AFF80648FFF7A4FF392800D1EF
:102A700000E0C9E700BFFFF7B9F810BD0020014032
:102A80000048004008B501210802FFF793F928200B
:102A90008DF803000220ADF8000069460548FEF7F6
:102AA0006CFF0820ADF8000069460248FEF765FF9C
:102AB00008BD00000020014010B56FF00400FFF7D2
:102AC00021FC0A4800680A49B0FBF1F00949087086
:102AD0000846007800EB4001C1EBC0104FF6FF71D3
:102AE00001EAC0000449088010BD00000000002079
:102AF00000127A0014000020160000200146114A3E
:102B000012884A434FF0E0235A6100229A611A4624
:102B1000126942F001021A6100BF4FF0E022106911
:102B200000F001021AB100F48032002AF5D04FF013
:102B3000E022126922F001024FF0E0231A61002224
:102B40009A617047160000200146114A12784A43E4
:102B50004FF0E0235A6100229A611A46126942F04E
:102B600001021A6100BF4FF0E022106900F001027B
:102B70001AB100F48032002AF5D04FF0E022126939
:102B800022F001024FF0E0231A6100229A6170479F
:102B90001400002000BF054A128802F04002002AFB
:102BA000F9D0C2B2014B1B1D1A807047003801409A
:102BB000FFF782FF4FF4A060FFF7CAF8FEF79AFF15
:102BC000FEF782FEFFF75AF84FF400511A48FEF75D
:102BD0006AFF4FF400411848FEF765FF4FF47A7022
:102BE000FFF78CFF4FF4165000F066F84FF47A7040
:102BF000FFF784FF11A000F037F84FF47A70FFF769
:102C00007DFF002012490880012012490860FEF76C
:102C100095FEFFF737FF0EE000200F4908604FF4E4
:102C2000FA70FFF76BFF01200C49C1F894014FF4D3
:102C3000FA70FFF763FFEFE7001C01405573617204
:102C400074335F696E6974206973206F6B210000B3
:102C500020000020940123429481214200802142DF
:102C600001460868704700000FB438B505A8009009
:102C70000F48009A0499FDF741FB002000900C4892
:102C8000FDF7F4FC85B200240DE000BF40210948A7
:102C9000FFF7C8FD0028F9D00548015D0548FFF79A
:102CA0008EFE601C84B2AC42EFDB38BC5DF814FBD6
:102CB0009A0400200048004010B586B00446012167
:102CC0000820FFF777F801218804FFF753F82A4816
:102CD000FFF75AFD4FF48060ADF8100003208DF827
:102CE000120018208DF8130004A92448FEF745FEB1
:102CF0004FF40060ADF8100004208DF8130004A913
:102D00001E48FEF73AFE00940020ADF80400ADF82E
:102D10000600ADF80800ADF80C000C20ADF80A0074
:102D200069461548FFF7DAFD01211348FFF71FFD3B
:102D3000012240F225511048FFF7ABFD27208DF806
:102D4000140002208DF8150003208DF816000120D4
:102D50008DF8170005A8FEF7C3FF41F61F41632059
:102D6000FFF74CFB00200649088000210548FFF7CB
:102D70007BFB06B010BD000000480040000C014085
:102D8000200000200014004030B595B0054613AB7C
:102D900012AA09A9284600F039FA044614B12046BF
:102DA00015B030BD0020149026E0224909689DF836
:102DB000502001EBC20113AB11AA486801A900F031
:102DC00025FA04460CB12046EAE709A901A800F05B
:102DD000BBFC60B99DF844009DF84810884201DDB5
:102DE0000220DDE79DF85000124988750AE09DF841
:102DF0005000401CC0B214900E48007D9DF8501049
:102E00008842D2DC00BF0B48007D9DF850108842FC
:102E100001D10420C4E714A9284600F0D7FA0446DB
:102E20000CB12046BCE79DF85000024948750020CF
:102E3000B6E700007C0000202DE9F0419AB09C48E4
:102E4000847D007DA04202DC1AB0BDE8F081984983
:102E5000096801EBC40106AB07AA486808A900F09D
:102E6000D5F908A993A0FDF75BFA002644E0904845
:102E7000008B0121B1400840D8B122218FA0FDF77D
:102E80004FFA304600F028FB89492431471839466B
:102E90008BA0FDF745FA222188A0FDF741FA3046C4
:102EA00000F01AFB82492431084410A941F8260099
:102EB00018E0304600F010FB7D492431085810A975
:102EC00041F826007A48C07D30B910A850F8261085
:102ED0007CA0FDF725FA05E010A850F826107AA08E
:102EE000FDF71EFA9DF81C00401EB04202D078A0EB
:102EF000FDF716FA701CC6B29DF81C008642B6DBC0
:102F000074A0FDF70DFA00F039FB6948407D0B28ED
:102F10000DD2DFE800F0060D151E27323F4E5F721E
:102F200087006349096851F834008047054690E0FE
:102F30005F4A126852F8341010988847054688E0B6
:102F40005B4B1B6853F83420DDE9100190470546C0
:102F50007FE0574F3F6857F8343010A807C89847AC
:102F6000054676E0DFF848C1DCF800C05CF8347054
:102F700010A80FC8B84705466BE01498DFF830C1B9
:102F80000090DCF800C05CF8347010A80FC8B84797
:102F900005465EE0DDE91401DFF814C1CDE900016A
:102FA000DCF800C05CF8347010A80FC8B8470546BC
:102FB0004FE0DDE914121698DFF8F4C0CDE90012F5
:102FC0000290DCF800C05CF8347010A80FC8B84755
:102FD00005463EE0DDE91423DDE91610DFF8D0C038
:102FE000CDE90023CDE90210DCF800C05CF83470B4
:102FF00010A80FC8B84705462BE0DDE91523DDE929
:103000001710CDE90123CDE903101498DFF8A0C013
:103010000090DCF800C05CF8347010A80FC8B84706
:10302000054616E0DDE91623DDE91810CDE9022397
:10303000CDE90410DDE91401DFF874C0CDE9000129
:10304000DCF800C05CF8347010A80FC8B84705461B
:1030500000BF00BF00F050FA9DF8180001280CD105
:103060001348C07D20B929461BA0FDF759F907E098
:1030700029461BA0FDF754F902E018A0FDF750F90E
:103080000B4890F8EC0088B10948D0F8F0000A210C
:10309000B0FBF1F201FB12070548D0F8F000B0FBDD
:1030A000F1F83A46414611A0FDF73AF900BFCBE6E8
:1030B0007C0000200D0A2573280000002563000015
:1030C00025730000256C750030582558000000005D
:1030D0002C000000290000003D256C753B0D0A0006
:1030E0003D305825583B0D0A0000000046756E63C0
:1030F00074696F6E2052756E2054696D653A25644F
:103100002E2531646D730D0A00000000F0B50346F2
:103110001546002000220026002455E01F782C2FA1
:1031200001D104B901221F78292F01D01F780FB9CE
:1031300004B94AE0002E34D11F78302F02DB1F780B
:10314000392F11DD1F78612F02DB1F78662F0BDD11
:103150001F78412F02DB1F78462F05DD1F78582F7F
:1031600002D01F78782F0CD102B12EE01F78612F8A
:1031700003DB1F78203F0F7001E01F780F70491CA0
:103180001FE01F78222F04D102B11EE00126012486
:1031900017E01F78202F14D01F782C2F11D0FF2676
:1031A00013E01F78222F00D1002402B10DE044B1BA
:1031B0001F785C2F02D15B1C471CF8B21F780F7080
:1031C000491C471CF8B25B1CA8E700BF00270F7022
:1031D0002E70F0BD10B50446002010700BE0207872
:1031E0000870641C491C1078401C107010789842BC
:1031F00001DB012010BD2078202802D02078002893
:10320000EDD10020087000BFF4E700002DE9FF4F6A
:1032100085B0804689460027002004900390012055
:1032200002904FF0000B002544461DE02078202836
:1032300016D005F07F00052812DA0DB945F080059B
:1032400005F07F00042803D120782A2800D00EE062
:10325000207805F07F010DF80100681CC5B202E07E
:10326000852D00D103E0641C20780028DED100BF4A
:103270008DB1002005F07F010DF8010051A16846D5
:1032800000F062FA18B900210898017002E00121EB
:103290000898017000254FF0000A444614E0641CB1
:1032A0000AF1010000F0FF0A2078202802D02078DF
:1032B0002A2809D1204600F0D7F90646282E03D047
:1032C0002A2E01D0CDF810A02078282802D020780E
:1032D0000028E4D14446049810B10498401C0444EA
:1032E0004FF0000A002654E0207810B94FF0010A90
:1032F00050E02078282803D116B9781CC7B213E013
:103300002078292808D13EB917B1781EC7B201E04C
:103310004FF0010A47B93DE02078222804D10EB9C8
:10332000012000E00020064647B9207820282FD051
:10333000207889F8000009F1010929E020782C287B
:1033400004D101200290681CC5B214E02078202826
:1033500011D0207828280ED04DB9BBF1050F06DA20
:1033600020780DF80B000BF1010000F0FF0B029824
:10337000401CC0B20290012F0AD10298022807D146
:103380000298401CC0B202900398401CC0B2039047
:10339000641CA9E700BF0398012809D100200DF89B
:1033A0000B0008A1684600F0CFF908B9002003908F
:1033B000079903980870002089F80000504609B06A
:1033C000BDE8F08F766F6964000000002DE9F043DE
:1033D000B5B005460F460024002604E000213D4814
:1033E0008155701CC6B20A2EF8DB06E06D1C2878E9
:1033F00018B9012035B0BDE8F08328782828F5D128
:103400006D1C61E034AA69462846FFF77FFE064638
:1034100035449DF8D00020B1012827D0FF284CD199
:1034200049E09DF8000000B333A9684600F027F991
:1034300006460EB10220DDE7204600F04DF8254992
:103440000A31339A0A50A1F12400008B0121A140D6
:10345000884320491A39088304211E480155601CFD
:10346000C4B20A2C01DD0320C4E726E0684600F060
:1034700087F9401C00F0FF08204600F02DF81549A0
:103480000A3100EB01094946684600F06EF911481F
:103490001A38018B0120A040014388B20D491A3926
:1034A00008830C4800F80480601CC4B20A2C01DDBB
:1034B00003209FE701E002209CE700BF287829282D
:1034C00001D0287800B900E09CE700BF3C700020E4
:1034D00090E700009600002002460020002105E051
:1034E000044B5B5C0344D8B24B1CD9B29142F7DB6E
:1034F000704700009600002010B501210D48FEF72E
:10350000C2FF012808D10C48D0F8F0004FF6FF7137
:1035100008440949C1F8F0000648FEF7B1FF064922
:10352000D1F8F01008440449C1F8F0000846D0F87A
:10353000F00010BD000800407C00002010B50446DB
:1035400004EBC40000EB04100122C2EB800081B246
:103550004FF47A70FFF710F801200149C87510BDCB
:103560007C00002010B50246012000E050430B0013
:10357000A1F10104E1B2F9D110BD000010B50121A3
:103580000848FEF76BFF4FF6FF710648FEF79EFFF7
:1035900000210448FEF79CFF00200349C1F8F00019
:1035A00010BD0000000800407C00002070B51D48E0
:1035B000008800F40040002833D01A480578002025
:1035C00019494855194881681748884704461CB965
:1035D0001649C868804721E0134800F0DDF8054629
:1035E000012D00D02C46CCB1012C06D0022C08D0E5
:1035F000032C0AD0042C10D10BE00DA0FCF790FE98
:103600000BE00EA0FCF78CFE07E00FA0FCF788FE95
:1036100003E010A0FCF784FE00BF00BF00200149BA
:10362000088070BD1C000020700100207C0000207C
:10363000BAAFCAFDB4EDCEF3210D0A00B2CECAFD79
:10364000B4EDCEF3210D0A00B2CECAFDCCABB6E08C
:10365000210D0A00CEB4D5D2B5BDC6A5C5E4B5C40A
:10366000BAAFCAFD210D0A000146491C00E0491C01
:103670000878202801D10029F9D1087870472DE970
:10368000F04307460E4600254FF00A083C4600204E
:1036900030601FE02078392802DC207830280ADAF0
:1036A0002078462802DC2078412804DA207858283F
:1036B00009D1012D07D12078412801DB4FF01008F6
:1036C000681CC5B205E0207800B904E00120BDE81F
:1036D000F083641CDEE700BF3C46B8F1100F0FD149
:1036E000032D01DA0220F2E72078302806D1607835
:1036F000582803D1A41CA81EC5B204E00320E6E7A5
:103700000DB90420E3E71BE00DB1681EC5B22078B7
:10371000392806DC2078302803DB2078A0F1300936
:1037200002E02078A0F1370929464046FFF71AFF4A
:10373000316809FB00103060641C207800B900E09B
:10374000E2E700BF0020C2E702460AE010780B78EB
:10375000984201D001207047107800B902E0521C55
:10376000491CF3E700BF0020F5E706E002780A7085
:10377000027802B902E0401C491CF7E700BF70471D
:103780000146002005E00A7802B903E0421CD0B2ED
:10379000491CF8E700BF704710B58CB004461E23E3
:1037A0000BAA03A92046FFF715FD0090009810B161
:1037B00001200CB010BD9DF82C00044400200B909B
:1037C0000EE040489DF82C2050F8221003A8FFF787
:1037D000BBFF00B908E09DF82C00401CC0B20B9064
:1037E0009DF82C000728ECD300BF9DF82C0007287B
:1037F00063D2DFE800F004053C5E6564630000BF4F
:1038000031A0FCF78DFD31A0FCF78AFD3FA0FCF74D
:1038100087FD4EA0FCF784FD5CA0FCF781FD6BA04A
:10382000FCF77EFD79A0FCF77BFD86A0FCF778FD18
:103830008BA0FCF775FD90A0FCF772FD94A0FCF73F
:103840006FFD99A0FCF76CFD9EA0FCF769FDA4A09C
:10385000FCF766FDB0A0FCF763FDBDA0FCF760FDC2
:10386000C8A0FCF75DFDD4A0FCF75AFD9AE216A0B3
:10387000FCF756FDE0A0FCF753FD00200B900EE096
:10388000ED4800689DF82C2000EBC2004168EBA0D9
:10389000FCF746FD9DF82C00401CC0B20B90E6489A
:1038A000007D9DF82C108842EADC07A0FCF738FD6B
:1038B00078E205A0FCF734FDC4E171E245E219E2CB
:1038C000ECE10000380000200D0A00002D2D2D2D08
:1038D0002D2D2D2D2D2D2D2D2D2D2D2D2D2D2D2D18
:1038E0002D2D2D2D55534D4152542056332E312D13
:1038F0002D2D2D2D2D2D2D2D2D2D2D2D2D2D2D2DF8
:103900002D2D2D2D2D2D2D200D0A000020202020C5
:1039100055534D415254CAC7D3C9414C49454E54E1
:10392000454BBFAAB7A2B5C4D2BBB8F6C1E9C7C957
:10393000B5C4B4AEBFDAB5F7CAD4BBA5BDBBD7E931
:10394000BCFE2CCDA8B9FD200D0A0000CBFC2CC478
:10395000E3BFC9D2D4CDA8B9FDB4AEBFDAD6FACA96
:10396000D6B5F7D3C3B3CCD0F2C0EFC3E6B5C4C865
:10397000CEBACEBAAFCAFD2CB2A2D6B4D0D02ED217
:10398000F2B4CB2CC4E3BFC90D0A0000D2D4CBE6FD
:10399000D2E2B8FCB8C4BAAFCAFDB5C4CAE4C8EB39
:1039A000B2CECAFD28D6A7B3D6CAFDD7D6283130A5
:1039B0002F3136BDF8D6C629A1A2D7D6B7FBB4AEF3
:1039C000A1A2BAAFCAFDC8EB0D0A0000BFDAB5D894
:1039D000D6B7B5C8D7F7CEAAB2CECAFD292CB5A5A1
:1039E000B8F6BAAFCAFDD7EEB6E0D6A7B3D6313037
:1039F000B8F6CAE4C8EBB2CECAFD2CB2A2D6A7B3C1
:103A0000D6BAAFCAFDB7B5200D0A0000BBD8D6B5EF
:103A1000CFD4CABE2ED0C2D4F6B2CECAFDCFD4CA3D
:103A2000BEBDF8D6C6C9E8D6C3B9A6C4DC2CD0C280
:103A3000D4F6BDF8D6C6D7AABBBBB9A6C4DC2E0D3A
:103A40000A000000BCBCCAF5D6A7B3D63A77777790
:103A50002E6F70656E6564762E636F6D0D0A0000C3
:103A600055534D415254D3D037B8F6CFB5CDB3C32B
:103A7000FCC1EE3A0D0A00003F3A20202020202011
:103A8000BBF1C8A1B0EFD6FAD0C5CFA20D0A000095
:103A900068656C703A202020BBF1C8A1B0EFD6FA5F
:103AA000D0C5CFA20D0A00006C6973743A202020A3
:103AB000BFC9D3C3B5C4BAAFCAFDC1D0B1ED0D0AF9
:103AC0000A00000069643A2020202020BFC9D3C327
:103AD000BAAFCAFDB5C44944C1D0B1ED0D0A0A0060
:103AE0006865783A20202020B2CECAFD3136BDF874
:103AF000D6C6CFD4CABE2CBAF3B8FABFD5B8F12B0C
:103B0000CAFDD7D6BCB4D6B4D0D0BDF8D6C6D7AAD5
:103B1000BBBB0D0A0A0000006465633A2020202028
:103B2000B2CECAFD3130BDF8D6C6CFD4CABE2CBA8B
:103B3000F3B8FABFD5B8F12BCAFDD7D6BCB4D6B40A
:103B4000D0D0BDF8D6C6D7AABBBB0D0A0A0000006C
:103B500072756E74696D653A312CBFAAC6F4BAAF3E
:103B6000CAFDD4CBD0D0BCC6CAB13B302CB9D8B179
:103B7000D5BAAFCAFDD4CBD0D0BCC6CAB13B0D0AB2
:103B80000A000000C7EBB0B4D5D5B3CCD0F2B1E099
:103B9000D0B4B8F1CABDCAE4C8EBBAAFCAFDC3FB22
:103BA000BCB0B2CECAFDB2A2D2D4BBD8B3B5BCFCB5
:103BB000BDE1CAF82E0D0A002D2D2D2D2D2D2D2DF8
:103BC0002D2D2D2D2D2D2D2D2D2D2D2D2D2D2D2D25
:103BD0002D2D414C49454E54454B2D2D2D2D2D2D30
:103BE0002D2D2D2D2D2D2D2D2D2D2D2D2D2D2D2D05
:103BF0002D2D2D200D0A00002D2D2D2D2D2D2D2D9F
:103C00002D2D2D2D2D2D2D2D2D2D2D2D2D2D2D2DE4
:103C10002DBAAFCAFDC7E5B5A52D2D2D2D2D2D2D06
:103C20002D2D2D2D2D2D2D2D2D2D2D2D2D2D2D2DC4
:103C30002D2D2D2D200D0A007C00002025730D0A4E
:103C40000000000059A0FCF76BFB00200B901AE06D
:103C5000664909689DF82C2001EBC20101AB02AA5C
:103C6000486803A9FFF7D2FA604800689DF82C1055
:103C700050F8312003A95EA0FCF752FB9DF82C0000
:103C8000401CC0B20B905948007D9DF82C10884212
:103C9000DEDCAFF2CC30FCF743FB83E0AFF2D83090
:103CA000FCF73EFB0BAA03A92046FFF72FFA9DF86D
:103CB0002C00C8B9694603A8FFF7E1FC0B909DF8FA
:103CC0002C0020B94FA00099FCF72AFB0EE09DF8CC
:103CD0002C00042801D002206BE54DA0FCF720FB4E
:103CE00001204249C87501E0022062E547A0FCF7C7
:103CF00017FB57E045A0FCF713FB0BAA03A92046CE
:103D0000FFF704FA9DF82C00C8B9694603A8FFF72D
:103D1000B6FC0B909DF82C0020B942A00099FCF74E
:103D2000FFFA0EE09DF82C00042801D0022040E5A7
:103D30003FA0FCF7F5FA00202C49C87501E00220ED
:103D400037E532A0FCF7ECFA2CE030A0FCF7E8FAFB
:103D50000BAA03A92046FFF7D9F99DF82C00C8B992
:103D6000694603A8FFF78BFC0B909DF82C0078B9EF
:103D70001E49009881F8EC00084690F8EC0018B154
:103D800030A0FCF7CDFA07E035A0FCF7C9FA03E054
:103D900002200EE502200CE51CA0FCF7C1FA01E0B0
:103DA000012006E500BF002003E500002D2D2D2D8C
:103DB0002D2D2D2D2D2D2D2D2D2D2D2D2D2D2D2D33
:103DC0002D2D2D2D2DBAAFCAFD204944202D2D2D8E
:103DD0002D2D2D2D2D2D2D2D2D2D2D2D2D2D2D2D13
:103DE0002D2D2D2D2D2D2D2D200D0A007C00002098
:103DF00025732069642069733A0D0A3058253038DC
:103E0000580D0A004845583A305825580D0A000008
:103E10003136BDF8D6C6B2CECAFDCFD4CABE210D4A
:103E20000A0000004445433A256C750D0A00000065
:103E30003130BDF8D6C6B2CECAFDCFD4CABE210D30
:103E40000A00000052756E2054696D652043616C54
:103E500063756C6174696F6E204F4E0D0A0000002F
:103E600052756E2054696D652043616C63756C6199
:103E700074696F6E204F46460D0A0000016070475E
:103E800010B500290AD00878002807D005487844E2
:103E9000FDF71EF9002801D0002010BD024878442B
:103EA00010BD0000960200008E02000010B500292F
:103EB0000AD00878002807D005487844FDF708F9AB
:103EC000002801D0002010BD0248784410BD000039
:103ED000860200007E020000FCF7A0BE9302EE0204
:103EE0000000EE0293025E014B025E010B025E01D6
:103EF0000B02EE020000EE020B02EE024B02770113
:103F00000B025E01EE015E01B801EE020000EE025E
:103F10000B025E014B0277010B027701EE015E019D
:103F2000B801EE020000EE02EE01EE020B02EE021C
:103F30004B02EE0200005E010B02EE02EE015E019A
:103F40000B02E80300030306010406020500030553
:103F50001F1C1F1E1F1E1F1F1E1F1E1F303132332E
:103F600034353637383941424344454640305800AD
:103F700030313233343536373839616263646566DF
:103F8000403078000400000800000000000000023B
:103F90000001000010000000000000000000000010
:103FA00002400000000000A00000000005400000EA
:103FB000000000C8000000000C4000000000409C11
:103FC00000000000194000000020BCBE00000000FE
:103FD00034400000BFC91B8E00000004B540000043
:103FE000504BCFD06607E2CF010000006C410000CB
:103FF0003E8251AADFEEA73401000000D942000042
:10400000DCB5A0E23A301F97FFFFFFFFB445000088
:10401000FD25A0C8E9A3C14FFFFFFFFFFF3F000040
:104020000000008000000000FF3F00000000008052
:10403000000000003F000000646563006964000048
:1040400072756E74696D650068656C7000000000C3
:104050006C69737400000000686578007538205240
:1040600054435F53657428753136207379656172E6
:104070002C753820736D6F6E2C75382073646179E0
:104080002C753820686F75722C7538206D696E2C10
:104090007538207365632900766F696420777269CB
:1040A00074655F6164647228753332206164647280
:1040B0002C7533322076616C290000007533322074
:1040C000726561645F616464722875333220616473
:1040D00064722900766F69642064656C61795F6D34
:1040E0007328753136206E6D73290000766F696410
:1040F0002064656C61795F757328753332206E7545
:1041000073290000504200080000002070010000E8
:104110006C010008BC42000870010020E80B0000A0
:10412000C80100081C00000043000000F8FFFFFF6A
:104130000C0000000E0000000F0000002E00000028
:104140001001000043000000F8FFFFFF0040404066
:10415000404040404040414141414140404040405A
:104160004040404040404040404040404005020206
:1041700002020202020202020202020202202020C5
:104180002020202020202002020202020202909021
:10419000909090901010101010101010101010101F
:1041A0001010101010101010020202020202888873
:1041B000888888880808080808080808080808087F
:1041C0000808080808080808020202024000000067
:1041D00000000000000000000000000000000000DF
:1041E00000000000000000000000000000000000CF
:1041F00000000000000000000000000000000000BF
:1042000000000000000000000000000000000000AE
:10421000000000000000000000000000000000009E
:10422000000000000000000000000000000000008E
:10423000000000000000000000000000000000007E
:10424000000000000000000000000000000000006E
:104250001184A24A04000912010203040607080996
:10426000291A691E25020406081334401B08480455
:104270001A50041A3C041A58041A38041A40041339
:10428000612C1B08BC08137D3E1B08980813FD2AEF
:104290001B08D40813492B1B08EC081321211B0809
:1042A0005C08225414203D351408892D1408392E39
:0C42B0001B08AD0C1A056D01DC000000BD
:04000005080002B934
:00000001FF
